{
  "contractName": "ExtendedHashStorage",
  "abi": [
    {
      "inputs": [],
      "stateMutability": "nonpayable",
      "type": "constructor"
    },
    {
      "anonymous": false,
      "inputs": [
        {
          "indexed": true,
          "internalType": "address",
          "name": "client",
          "type": "address"
        },
        {
          "indexed": false,
          "internalType": "string",
          "name": "name",
          "type": "string"
        }
      ],
      "name": "ClientRegistered",
      "type": "event"
    },
    {
      "anonymous": false,
      "inputs": [
        {
          "indexed": true,
          "internalType": "string",
          "name": "hash",
          "type": "string"
        }
      ],
      "name": "HashSaved",
      "type": "event"
    },
    {
      "anonymous": false,
      "inputs": [
        {
          "indexed": true,
          "internalType": "address",
          "name": "penalized",
          "type": "address"
        },
        {
          "indexed": false,
          "internalType": "uint256",
          "name": "amount",
          "type": "uint256"
        }
      ],
      "name": "TokensPenalized",
      "type": "event"
    },
    {
      "anonymous": false,
      "inputs": [],
      "name": "TokensReset",
      "type": "event"
    },
    {
      "inputs": [
        {
          "internalType": "string",
          "name": "hash",
          "type": "string"
        }
      ],
      "name": "saveHash",
      "outputs": [],
      "stateMutability": "nonpayable",
      "type": "function"
    },
    {
      "inputs": [
        {
          "internalType": "string",
          "name": "hash",
          "type": "string"
        }
      ],
      "name": "checkIfHashExists",
      "outputs": [
        {
          "internalType": "bool",
          "name": "",
          "type": "bool"
        }
      ],
      "stateMutability": "view",
      "type": "function",
      "constant": true
    },
    {
      "inputs": [
        {
          "internalType": "string",
          "name": "username",
          "type": "string"
        },
        {
          "internalType": "string",
          "name": "password",
          "type": "string"
        }
      ],
      "name": "registerClient",
      "outputs": [],
      "stateMutability": "nonpayable",
      "type": "function"
    },
    {
      "inputs": [
        {
          "internalType": "address",
          "name": "client",
          "type": "address"
        }
      ],
      "name": "getClientName",
      "outputs": [
        {
          "internalType": "string",
          "name": "",
          "type": "string"
        }
      ],
      "stateMutability": "view",
      "type": "function",
      "constant": true
    },
    {
      "inputs": [],
      "name": "getRegisteredClients",
      "outputs": [
        {
          "internalType": "address[]",
          "name": "",
          "type": "address[]"
        }
      ],
      "stateMutability": "view",
      "type": "function",
      "constant": true
    },
    {
      "inputs": [
        {
          "internalType": "address",
          "name": "client",
          "type": "address"
        }
      ],
      "name": "getTokenBalance",
      "outputs": [
        {
          "internalType": "uint256",
          "name": "",
          "type": "uint256"
        }
      ],
      "stateMutability": "view",
      "type": "function",
      "constant": true
    },
    {
      "inputs": [
        {
          "internalType": "address",
          "name": "client",
          "type": "address"
        },
        {
          "internalType": "uint256",
          "name": "amount",
          "type": "uint256"
        }
      ],
      "name": "penalizeClient",
      "outputs": [],
      "stateMutability": "nonpayable",
      "type": "function"
    },
    {
      "inputs": [],
      "name": "resetTokenBalances",
      "outputs": [],
      "stateMutability": "nonpayable",
      "type": "function"
    }
  ],
  "bytecode": "0x608060405234801562000010575f80fd5b503360045f6101000a81548173ffffffffffffffffffffffffffffffffffffffff021916908373ffffffffffffffffffffffffffffffffffffffff1602179055506040518060400160405280600581526020017f61646d696e00000000000000000000000000000000000000000000000000000081525060015f60045f9054906101000a900473ffffffffffffffffffffffffffffffffffffffff1673ffffffffffffffffffffffffffffffffffffffff1673ffffffffffffffffffffffffffffffffffffffff1681526020019081526020015f209081620000f3919062000444565b50600360045f9054906101000a900473ffffffffffffffffffffffffffffffffffffffff16908060018154018082558091505060019003905f5260205f20015f9091909190916101000a81548173ffffffffffffffffffffffffffffffffffffffff021916908373ffffffffffffffffffffffffffffffffffffffff1602179055506103e860025f60045f9054906101000a900473ffffffffffffffffffffffffffffffffffffffff1673ffffffffffffffffffffffffffffffffffffffff1673ffffffffffffffffffffffffffffffffffffffff1681526020019081526020015f208190555062000528565b5f81519050919050565b7f4e487b71000000000000000000000000000000000000000000000000000000005f52604160045260245ffd5b7f4e487b71000000000000000000000000000000000000000000000000000000005f52602260045260245ffd5b5f60028204905060018216806200025c57607f821691505b60208210810362000272576200027162000217565b5b50919050565b5f819050815f5260205f209050919050565b5f6020601f8301049050919050565b5f82821b905092915050565b5f60088302620002d67fffffffffffffffffffffffffffffffffffffffffffffffffffffffffffffffff8262000299565b620002e2868362000299565b95508019841693508086168417925050509392505050565b5f819050919050565b5f819050919050565b5f6200032c620003266200032084620002fa565b62000303565b620002fa565b9050919050565b5f819050919050565b62000347836200030c565b6200035f620003568262000333565b848454620002a5565b825550505050565b5f90565b6200037562000367565b620003828184846200033c565b505050565b5b81811015620003a9576200039d5f826200036b565b60018101905062000388565b5050565b601f821115620003f857620003c28162000278565b620003cd846200028a565b81016020851015620003dd578190505b620003f5620003ec856200028a565b83018262000387565b50505b505050565b5f82821c905092915050565b5f6200041a5f1984600802620003fd565b1980831691505092915050565b5f62000434838362000409565b9150826002028217905092915050565b6200044f82620001e0565b67ffffffffffffffff8111156200046b576200046a620001ea565b5b62000477825462000244565b62000484828285620003ad565b5f60209050601f831160018114620004ba575f8415620004a5578287015190505b620004b1858262000427565b86555062000520565b601f198416620004ca8662000278565b5f5b82811015620004f357848901518255600182019150602085019450602081019050620004cc565b868310156200051357848901516200050f601f89168262000409565b8355505b6001600288020188555050505b505050505050565b61191580620005365f395ff3fe608060405234801561000f575f80fd5b5060043610610086575f3560e01c80634ac7caf0116100595780634ac7caf01461010e578063518148991461011857806373923d3414610136578063fbd8832a1461016657610086565b80631c01b9bf1461008a57806327252b52146100a65780633aecd0e3146100c25780634364d973146100f2575b5f80fd5b6100a4600480360381019061009f9190610daf565b610196565b005b6100c060048036038101906100bb9190610e83565b610305565b005b6100dc60048036038101906100d79190610ec1565b610523565b6040516100e99190610efb565b60405180910390f35b61010c60048036038101906101079190610f14565b610569565b005b61011661084c565b005b610120610a4d565b60405161012d9190611041565b60405180910390f35b610150600480360381019061014b9190610ec1565b610ad8565b60405161015d91906110db565b60405180910390f35b610180600480360381019061017b9190610daf565b610ba5565b60405161018d9190611115565b60405180910390f35b5f60015f3373ffffffffffffffffffffffffffffffffffffffff1673ffffffffffffffffffffffffffffffffffffffff1681526020019081526020015f2080546101df9061115b565b905003610221576040517f08c379a0000000000000000000000000000000000000000000000000000000008152600401610218906111d5565b60405180910390fd5b5f81604051610230919061122d565b90815260200160405180910390205f9054906101000a900460ff161561028b576040517f08c379a00000000000000000000000000000000000000000000000000000000081526004016102829061128d565b60405180910390fd5b60015f8260405161029c919061122d565b90815260200160405180910390205f6101000a81548160ff021916908315150217905550806040516102ce919061122d565b60405180910390207f3bf901dda57ce3942aa3b2b42ecc4cadbc32eaac8c0eb2ec1c4e8f9a9e68e51660405160405180910390a250565b5f60015f3373ffffffffffffffffffffffffffffffffffffffff1673ffffffffffffffffffffffffffffffffffffffff1681526020019081526020015f20805461034e9061115b565b905003610390576040517f08c379a0000000000000000000000000000000000000000000000000000000008152600401610387906111d5565b60405180910390fd5b3373ffffffffffffffffffffffffffffffffffffffff168273ffffffffffffffffffffffffffffffffffffffff16036103fe576040517f08c379a00000000000000000000000000000000000000000000000000000000081526004016103f5906112f5565b60405180910390fd5b8060025f8473ffffffffffffffffffffffffffffffffffffffff1673ffffffffffffffffffffffffffffffffffffffff1681526020019081526020015f2054101561047e576040517f08c379a00000000000000000000000000000000000000000000000000000000081526004016104759061135d565b60405180910390fd5b8060025f8473ffffffffffffffffffffffffffffffffffffffff1673ffffffffffffffffffffffffffffffffffffffff1681526020019081526020015f205f8282546104ca91906113a8565b925050819055508173ffffffffffffffffffffffffffffffffffffffff167f74fffed4a272191acb991ceddb39242ce339cd5f566fbedb662dcb28f0915228826040516105179190610efb565b60405180910390a25050565b5f60025f8373ffffffffffffffffffffffffffffffffffffffff1673ffffffffffffffffffffffffffffffffffffffff1681526020019081526020015f20549050919050565b60405160200161057890611425565b604051602081830303815290604052805190602001208260405160200161059f919061122d565b60405160208183030381529060405280519060200120146105f5576040517f08c379a00000000000000000000000000000000000000000000000000000000081526004016105ec90611483565b60405180910390fd5b60405160200161060490611425565b604051602081830303815290604052805190602001208160405160200161062b919061122d565b6040516020818303038152906040528051906020012014610681576040517f08c379a0000000000000000000000000000000000000000000000000000000008152600401610678906114eb565b60405180910390fd5b5f60015f3373ffffffffffffffffffffffffffffffffffffffff1673ffffffffffffffffffffffffffffffffffffffff1681526020019081526020015f2080546106ca9061115b565b90501461070c576040517f08c379a000000000000000000000000000000000000000000000000000000000815260040161070390611553565b60405180910390fd5b8160015f3373ffffffffffffffffffffffffffffffffffffffff1673ffffffffffffffffffffffffffffffffffffffff1681526020019081526020015f209081610756919061170e565b50606460025f3373ffffffffffffffffffffffffffffffffffffffff1673ffffffffffffffffffffffffffffffffffffffff1681526020019081526020015f2081905550600333908060018154018082558091505060019003905f5260205f20015f9091909190916101000a81548173ffffffffffffffffffffffffffffffffffffffff021916908373ffffffffffffffffffffffffffffffffffffffff1602179055503373ffffffffffffffffffffffffffffffffffffffff167f1095d5bb47535aabc9770acbcd3f5f182a26902a02d9eaa8b8c1450e714120788360405161084091906110db565b60405180910390a25050565b60045f9054906101000a900473ffffffffffffffffffffffffffffffffffffffff1673ffffffffffffffffffffffffffffffffffffffff163373ffffffffffffffffffffffffffffffffffffffff16146108db576040517f08c379a00000000000000000000000000000000000000000000000000000000081526004016108d29061184d565b60405180910390fd5b5f5b600380549050811015610a1e575f600382815481106108ff576108fe61186b565b5b905f5260205f20015f9054906101000a900473ffffffffffffffffffffffffffffffffffffffff16905060045f9054906101000a900473ffffffffffffffffffffffffffffffffffffffff1673ffffffffffffffffffffffffffffffffffffffff168173ffffffffffffffffffffffffffffffffffffffff16036109c6576103e860025f8373ffffffffffffffffffffffffffffffffffffffff1673ffffffffffffffffffffffffffffffffffffffff1681526020019081526020015f2081905550610a0a565b606460025f8373ffffffffffffffffffffffffffffffffffffffff1673ffffffffffffffffffffffffffffffffffffffff1681526020019081526020015f20819055505b508080610a1690611898565b9150506108dd565b507fe6c9f3dde59ad359676491924ea7838a52ddb18a259ef28309c97e060eac4f8a60405160405180910390a1565b60606003805480602002602001604051908101604052809291908181526020018280548015610ace57602002820191905f5260205f20905b815f9054906101000a900473ffffffffffffffffffffffffffffffffffffffff1673ffffffffffffffffffffffffffffffffffffffff1681526020019060010190808311610a85575b5050505050905090565b606060015f8373ffffffffffffffffffffffffffffffffffffffff1673ffffffffffffffffffffffffffffffffffffffff1681526020019081526020015f208054610b229061115b565b80601f0160208091040260200160405190810160405280929190818152602001828054610b4e9061115b565b8015610b995780601f10610b7057610100808354040283529160200191610b99565b820191905f5260205f20905b815481529060010190602001808311610b7c57829003601f168201915b50505050509050919050565b5f8060015f3373ffffffffffffffffffffffffffffffffffffffff1673ffffffffffffffffffffffffffffffffffffffff1681526020019081526020015f208054610bef9061115b565b905003610c31576040517f08c379a0000000000000000000000000000000000000000000000000000000008152600401610c28906111d5565b60405180910390fd5b5f82604051610c40919061122d565b90815260200160405180910390205f9054906101000a900460ff169050919050565b5f604051905090565b5f80fd5b5f80fd5b5f80fd5b5f80fd5b5f601f19601f8301169050919050565b7f4e487b71000000000000000000000000000000000000000000000000000000005f52604160045260245ffd5b610cc182610c7b565b810181811067ffffffffffffffff82111715610ce057610cdf610c8b565b5b80604052505050565b5f610cf2610c62565b9050610cfe8282610cb8565b919050565b5f67ffffffffffffffff821115610d1d57610d1c610c8b565b5b610d2682610c7b565b9050602081019050919050565b828183375f83830152505050565b5f610d53610d4e84610d03565b610ce9565b905082815260208101848484011115610d6f57610d6e610c77565b5b610d7a848285610d33565b509392505050565b5f82601f830112610d9657610d95610c73565b5b8135610da6848260208601610d41565b91505092915050565b5f60208284031215610dc457610dc3610c6b565b5b5f82013567ffffffffffffffff811115610de157610de0610c6f565b5b610ded84828501610d82565b91505092915050565b5f73ffffffffffffffffffffffffffffffffffffffff82169050919050565b5f610e1f82610df6565b9050919050565b610e2f81610e15565b8114610e39575f80fd5b50565b5f81359050610e4a81610e26565b92915050565b5f819050919050565b610e6281610e50565b8114610e6c575f80fd5b50565b5f81359050610e7d81610e59565b92915050565b5f8060408385031215610e9957610e98610c6b565b5b5f610ea685828601610e3c565b9250506020610eb785828601610e6f565b9150509250929050565b5f60208284031215610ed657610ed5610c6b565b5b5f610ee384828501610e3c565b91505092915050565b610ef581610e50565b82525050565b5f602082019050610f0e5f830184610eec565b92915050565b5f8060408385031215610f2a57610f29610c6b565b5b5f83013567ffffffffffffffff811115610f4757610f46610c6f565b5b610f5385828601610d82565b925050602083013567ffffffffffffffff811115610f7457610f73610c6f565b5b610f8085828601610d82565b9150509250929050565b5f81519050919050565b5f82825260208201905092915050565b5f819050602082019050919050565b610fbc81610e15565b82525050565b5f610fcd8383610fb3565b60208301905092915050565b5f602082019050919050565b5f610fef82610f8a565b610ff98185610f94565b935061100483610fa4565b805f5b8381101561103457815161101b8882610fc2565b975061102683610fd9565b925050600181019050611007565b5085935050505092915050565b5f6020820190508181035f8301526110598184610fe5565b905092915050565b5f81519050919050565b5f82825260208201905092915050565b5f5b8381101561109857808201518184015260208101905061107d565b5f8484015250505050565b5f6110ad82611061565b6110b7818561106b565b93506110c781856020860161107b565b6110d081610c7b565b840191505092915050565b5f6020820190508181035f8301526110f381846110a3565b905092915050565b5f8115159050919050565b61110f816110fb565b82525050565b5f6020820190506111285f830184611106565b92915050565b7f4e487b71000000000000000000000000000000000000000000000000000000005f52602260045260245ffd5b5f600282049050600182168061117257607f821691505b6020821081036111855761118461112e565b5b50919050565b7f4e6f742061207265676973746572656420636c69656e740000000000000000005f82015250565b5f6111bf60178361106b565b91506111ca8261118b565b602082019050919050565b5f6020820190508181035f8301526111ec816111b3565b9050919050565b5f81905092915050565b5f61120782611061565b61121181856111f3565b935061122181856020860161107b565b80840191505092915050565b5f61123882846111fd565b915081905092915050565b7f4861736820616c72656164792073617665642e000000000000000000000000005f82015250565b5f61127760138361106b565b915061128282611243565b602082019050919050565b5f6020820190508181035f8301526112a48161126b565b9050919050565b7f43616e6e6f742070656e616c697a6520796f757273656c6600000000000000005f82015250565b5f6112df60188361106b565b91506112ea826112ab565b602082019050919050565b5f6020820190508181035f83015261130c816112d3565b9050919050565b7f496e73756666696369656e7420746f6b656e7320746f2070656e616c697a65005f82015250565b5f611347601f8361106b565b915061135282611313565b602082019050919050565b5f6020820190508181035f8301526113748161133b565b9050919050565b7f4e487b71000000000000000000000000000000000000000000000000000000005f52601160045260245ffd5b5f6113b282610e50565b91506113bd83610e50565b92508282039050818111156113d5576113d461137b565b5b92915050565b7f61646d696e0000000000000000000000000000000000000000000000000000005f82015250565b5f61140f6005836111f3565b915061141a826113db565b600582019050919050565b5f61142f82611403565b9150819050919050565b7f496e76616c696420757365726e616d65000000000000000000000000000000005f82015250565b5f61146d60108361106b565b915061147882611439565b602082019050919050565b5f6020820190508181035f83015261149a81611461565b9050919050565b7f496e76616c69642070617373776f7264000000000000000000000000000000005f82015250565b5f6114d560108361106b565b91506114e0826114a1565b602082019050919050565b5f6020820190508181035f830152611502816114c9565b9050919050565b7f436c69656e7420616c726561647920726567697374657265642e0000000000005f82015250565b5f61153d601a8361106b565b915061154882611509565b602082019050919050565b5f6020820190508181035f83015261156a81611531565b9050919050565b5f819050815f5260205f209050919050565b5f6020601f8301049050919050565b5f82821b905092915050565b5f600883026115cd7fffffffffffffffffffffffffffffffffffffffffffffffffffffffffffffffff82611592565b6115d78683611592565b95508019841693508086168417925050509392505050565b5f819050919050565b5f61161261160d61160884610e50565b6115ef565b610e50565b9050919050565b5f819050919050565b61162b836115f8565b61163f61163782611619565b84845461159e565b825550505050565b5f90565b611653611647565b61165e818484611622565b505050565b5b81811015611681576116765f8261164b565b600181019050611664565b5050565b601f8211156116c65761169781611571565b6116a084611583565b810160208510156116af578190505b6116c36116bb85611583565b830182611663565b50505b505050565b5f82821c905092915050565b5f6116e65f19846008026116cb565b1980831691505092915050565b5f6116fe83836116d7565b9150826002028217905092915050565b61171782611061565b67ffffffffffffffff8111156117305761172f610c8b565b5b61173a825461115b565b611745828285611685565b5f60209050601f831160018114611776575f8415611764578287015190505b61176e85826116f3565b8655506117d5565b601f19841661178486611571565b5f5b828110156117ab57848901518255600182019150602085019450602081019050611786565b868310156117c857848901516117c4601f8916826116d7565b8355505b6001600288020188555050505b505050505050565b7f4f6e6c792061646d696e2063616e20706572666f726d207468697320616374695f8201527f6f6e000000000000000000000000000000000000000000000000000000000000602082015250565b5f61183760228361106b565b9150611842826117dd565b604082019050919050565b5f6020820190508181035f8301526118648161182b565b9050919050565b7f4e487b71000000000000000000000000000000000000000000000000000000005f52603260045260245ffd5b5f6118a282610e50565b91507fffffffffffffffffffffffffffffffffffffffffffffffffffffffffffffffff82036118d4576118d361137b565b5b60018201905091905056fea2646970667358221220a23359733d8b3da1258310d72162ec083788eb074111a0e75464e5be8c8c5ddf64736f6c63430008150033",
  "immutableReferences": {},
  "source": "// SPDX-License-Identifier: MIT\r\npragma solidity ^0.8.0;\r\n\r\ncontract ExtendedHashStorage {\r\n    mapping(string => bool) private existingHashes;\r\n    mapping(address => string) private registeredClients;\r\n    mapping(address => uint256) private tokenBalance;\r\n    address[] private clientList;\r\n    address private admin;\r\n\r\n    event HashSaved(string indexed hash);\r\n    event ClientRegistered(address indexed client, string name);\r\n    event TokensPenalized(address indexed penalized, uint256 amount);\r\n    event TokensReset();\r\n\r\n    constructor() {\r\n        admin = msg.sender;\r\n        registeredClients[admin] = \"admin\";\r\n        clientList.push(admin);\r\n        tokenBalance[admin] = 1000; // Saldo iniziale per l'admin\r\n    }\r\n\r\n    function saveHash(string memory hash) public onlyRegistered {\r\n        require(!existingHashes[hash], \"Hash already saved.\");\r\n        existingHashes[hash] = true;\r\n        emit HashSaved(hash);\r\n    }\r\n\r\n    function checkIfHashExists(string memory hash) public view onlyRegistered returns (bool) {\r\n        return existingHashes[hash];\r\n    }\r\n\r\n    function registerClient(string memory username, string memory password) public {\r\n        require(keccak256(abi.encodePacked(username)) == keccak256(abi.encodePacked(\"admin\")), \"Invalid username\");\r\n        require(keccak256(abi.encodePacked(password)) == keccak256(abi.encodePacked(\"admin\")), \"Invalid password\");\r\n        require(bytes(registeredClients[msg.sender]).length == 0, \"Client already registered.\");\r\n        registeredClients[msg.sender] = username;\r\n        tokenBalance[msg.sender] = 100; // Nuovo client riceve 100 token\r\n        clientList.push(msg.sender);\r\n        emit ClientRegistered(msg.sender, username);\r\n    }\r\n\r\n    function getClientName(address client) public view returns (string memory) {\r\n        return registeredClients[client];\r\n    }\r\n\r\n    function getRegisteredClients() public view returns (address[] memory) {\r\n        return clientList;\r\n    }\r\n\r\n    function getTokenBalance(address client) public view returns (uint256) {\r\n        return tokenBalance[client];\r\n    }\r\n\r\n    // Penalizza un client sottraendogli un certo ammontare di token\r\n    function penalizeClient(address client, uint256 amount) public onlyRegistered {\r\n        require(client != msg.sender, \"Cannot penalize yourself\");\r\n        require(tokenBalance[client] >= amount, \"Insufficient tokens to penalize\");\r\n        tokenBalance[client] -= amount;\r\n        emit TokensPenalized(client, amount);\r\n    }\r\n\r\n    // Reset dei token per tutti i client (solo admin)\r\n    function resetTokenBalances() public onlyAdmin {\r\n        for(uint i = 0; i < clientList.length; i++){\r\n            address client = clientList[i];\r\n            if(client == admin) {\r\n                tokenBalance[client] = 1000;\r\n            } else {\r\n                tokenBalance[client] = 100;\r\n            }\r\n        }\r\n        emit TokensReset();\r\n    }\r\n\r\n    modifier onlyRegistered() {\r\n        require(bytes(registeredClients[msg.sender]).length != 0, \"Not a registered client\");\r\n        _;\r\n    }\r\n\r\n    modifier onlyAdmin() {\r\n        require(msg.sender == admin, \"Only admin can perform this action\");\r\n        _;\r\n    }\r\n}\r\n\r\n",
  "sourcePath": "C:\\Users\\fabtu\\PycharmProjects\\gossip_bc_full\\contracts\\ExtendedHashStorage.sol",
  "compiler": {
    "name": "solc",
    "version": "0.8.21+commit.d9974bed.Emscripten.clang"
  },
  "schemaVersion": "3.4.16",
  "updatedAt": "2025-03-08T14:08:50.559Z",
  "networkType": "ethereum",
  "devdoc": {
    "kind": "dev",
    "methods": {},
    "version": 1
  },
  "userdoc": {
    "kind": "user",
    "methods": {},
    "version": 1
  }
}