{
  "contractName": "FedClustering",
  "abi": [
    {
      "inputs": [
        {
          "internalType": "uint256",
          "name": "_dimension",
          "type": "uint256"
        },
        {
          "internalType": "uint256",
          "name": "_numClusters",
          "type": "uint256"
        }
      ],
      "stateMutability": "nonpayable",
      "type": "constructor"
    },
    {
      "inputs": [
        {
          "internalType": "uint256",
          "name": "",
          "type": "uint256"
        },
        {
          "internalType": "uint256",
          "name": "",
          "type": "uint256"
        }
      ],
      "name": "centers",
      "outputs": [
        {
          "internalType": "uint256",
          "name": "",
          "type": "uint256"
        }
      ],
      "stateMutability": "view",
      "type": "function",
      "constant": true
    },
    {
      "inputs": [],
      "name": "dimension",
      "outputs": [
        {
          "internalType": "uint256",
          "name": "",
          "type": "uint256"
        }
      ],
      "stateMutability": "view",
      "type": "function",
      "constant": true
    },
    {
      "inputs": [],
      "name": "owner",
      "outputs": [
        {
          "internalType": "address",
          "name": "",
          "type": "address"
        }
      ],
      "stateMutability": "view",
      "type": "function",
      "constant": true
    },
    {
      "inputs": [
        {
          "internalType": "uint256",
          "name": "clusterId",
          "type": "uint256"
        },
        {
          "internalType": "uint256[]",
          "name": "newCenter",
          "type": "uint256[]"
        }
      ],
      "name": "setClusterCenter",
      "outputs": [],
      "stateMutability": "nonpayable",
      "type": "function"
    },
    {
      "inputs": [
        {
          "internalType": "uint256",
          "name": "clusterId",
          "type": "uint256"
        }
      ],
      "name": "getClusterCenter",
      "outputs": [
        {
          "internalType": "uint256[]",
          "name": "",
          "type": "uint256[]"
        }
      ],
      "stateMutability": "view",
      "type": "function",
      "constant": true
    },
    {
      "inputs": [
        {
          "internalType": "uint256",
          "name": "clusterId",
          "type": "uint256"
        },
        {
          "internalType": "uint256[]",
          "name": "newCenter",
          "type": "uint256[]"
        }
      ],
      "name": "updateClusterCenter",
      "outputs": [],
      "stateMutability": "nonpayable",
      "type": "function"
    },
    {
      "inputs": [],
      "name": "getNumClusters",
      "outputs": [
        {
          "internalType": "uint256",
          "name": "",
          "type": "uint256"
        }
      ],
      "stateMutability": "view",
      "type": "function",
      "constant": true
    }
  ],
  "bytecode": "0x608060405234801562000010575f80fd5b5060405162000ded38038062000ded8339818101604052810190620000369190620001db565b3360025f6101000a81548173ffffffffffffffffffffffffffffffffffffffff021916908373ffffffffffffffffffffffffffffffffffffffff160217905550815f819055505f5b8181101562000129575f8367ffffffffffffffff811115620000a557620000a462000220565b5b604051908082528060200260200182016040528015620000d45781602001602082028036833780820191505090505b509050600181908060018154018082558091505060019003905f5260205f20015f9091909190915090805190602001906200011192919062000132565b5050808062000120906200027a565b9150506200007e565b505050620002c6565b828054828255905f5260205f209081019282156200016f579160200282015b828111156200016e57825182559160200191906001019062000151565b5b5090506200017e919062000182565b5090565b5b808211156200019b575f815f90555060010162000183565b5090565b5f80fd5b5f819050919050565b620001b781620001a3565b8114620001c2575f80fd5b50565b5f81519050620001d581620001ac565b92915050565b5f8060408385031215620001f457620001f36200019f565b5b5f6200020385828601620001c5565b92505060206200021685828601620001c5565b9150509250929050565b7f4e487b71000000000000000000000000000000000000000000000000000000005f52604160045260245ffd5b7f4e487b71000000000000000000000000000000000000000000000000000000005f52601160045260245ffd5b5f6200028682620001a3565b91507fffffffffffffffffffffffffffffffffffffffffffffffffffffffffffffffff8203620002bb57620002ba6200024d565b5b600182019050919050565b610b1980620002d45f395ff3fe608060405234801561000f575f80fd5b506004361061007b575f3560e01c80639498202d116100595780639498202d146100e95780639822776d14610107578063bf740f5814610125578063d7791c73146101555761007b565b806301dafdd01461007f578063853295c21461009b5780638da5cb5b146100cb575b5f80fd5b6100996004803603810190610094919061072e565b610171565b005b6100b560048036038101906100b09190610788565b6102c0565b6040516100c2919061086a565b60405180910390f35b6100d3610379565b6040516100e091906108c9565b60405180910390f35b6100f161039e565b6040516100fe91906108f1565b60405180910390f35b61010f6103a3565b60405161011c91906108f1565b60405180910390f35b61013f600480360381019061013a919061090a565b6103af565b60405161014c91906108f1565b60405180910390f35b61016f600480360381019061016a919061072e565b6103e5565b005b60025f9054906101000a900473ffffffffffffffffffffffffffffffffffffffff1673ffffffffffffffffffffffffffffffffffffffff163373ffffffffffffffffffffffffffffffffffffffff1614610200576040517f08c379a00000000000000000000000000000000000000000000000000000000081526004016101f7906109c8565b60405180910390fd5b6001805490508210610247576040517f08c379a000000000000000000000000000000000000000000000000000000000815260040161023e90610a30565b60405180910390fd5b5f5481511461028b576040517f08c379a000000000000000000000000000000000000000000000000000000000815260040161028290610a98565b60405180910390fd5b80600183815481106102a05761029f610ab6565b5b905f5260205f200190805190602001906102bb929190610534565b505050565b60606001805490508210610309576040517f08c379a000000000000000000000000000000000000000000000000000000000815260040161030090610a30565b60405180910390fd5b6001828154811061031d5761031c610ab6565b5b905f5260205f200180548060200260200160405190810160405280929190818152602001828054801561036d57602002820191905f5260205f20905b815481526020019060010190808311610359575b50505050509050919050565b60025f9054906101000a900473ffffffffffffffffffffffffffffffffffffffff1681565b5f5481565b5f600180549050905090565b600182815481106103be575f80fd5b905f5260205f200181815481106103d3575f80fd5b905f5260205f20015f91509150505481565b60025f9054906101000a900473ffffffffffffffffffffffffffffffffffffffff1673ffffffffffffffffffffffffffffffffffffffff163373ffffffffffffffffffffffffffffffffffffffff1614610474576040517f08c379a000000000000000000000000000000000000000000000000000000000815260040161046b906109c8565b60405180910390fd5b60018054905082106104bb576040517f08c379a00000000000000000000000000000000000000000000000000000000081526004016104b290610a30565b60405180910390fd5b5f548151146104ff576040517f08c379a00000000000000000000000000000000000000000000000000000000081526004016104f690610a98565b60405180910390fd5b806001838154811061051457610513610ab6565b5b905f5260205f2001908051906020019061052f929190610534565b505050565b828054828255905f5260205f2090810192821561056e579160200282015b8281111561056d578251825591602001919060010190610552565b5b50905061057b919061057f565b5090565b5b80821115610596575f815f905550600101610580565b5090565b5f604051905090565b5f80fd5b5f80fd5b5f819050919050565b6105bd816105ab565b81146105c7575f80fd5b50565b5f813590506105d8816105b4565b92915050565b5f80fd5b5f601f19601f8301169050919050565b7f4e487b71000000000000000000000000000000000000000000000000000000005f52604160045260245ffd5b610628826105e2565b810181811067ffffffffffffffff82111715610647576106466105f2565b5b80604052505050565b5f61065961059a565b9050610665828261061f565b919050565b5f67ffffffffffffffff821115610684576106836105f2565b5b602082029050602081019050919050565b5f80fd5b5f6106ab6106a68461066a565b610650565b905080838252602082019050602084028301858111156106ce576106cd610695565b5b835b818110156106f757806106e388826105ca565b8452602084019350506020810190506106d0565b5050509392505050565b5f82601f830112610715576107146105de565b5b8135610725848260208601610699565b91505092915050565b5f8060408385031215610744576107436105a3565b5b5f610751858286016105ca565b925050602083013567ffffffffffffffff811115610772576107716105a7565b5b61077e85828601610701565b9150509250929050565b5f6020828403121561079d5761079c6105a3565b5b5f6107aa848285016105ca565b91505092915050565b5f81519050919050565b5f82825260208201905092915050565b5f819050602082019050919050565b6107e5816105ab565b82525050565b5f6107f683836107dc565b60208301905092915050565b5f602082019050919050565b5f610818826107b3565b61082281856107bd565b935061082d836107cd565b805f5b8381101561085d57815161084488826107eb565b975061084f83610802565b925050600181019050610830565b5085935050505092915050565b5f6020820190508181035f830152610882818461080e565b905092915050565b5f73ffffffffffffffffffffffffffffffffffffffff82169050919050565b5f6108b38261088a565b9050919050565b6108c3816108a9565b82525050565b5f6020820190506108dc5f8301846108ba565b92915050565b6108eb816105ab565b82525050565b5f6020820190506109045f8301846108e2565b92915050565b5f80604083850312156109205761091f6105a3565b5b5f61092d858286016105ca565b925050602061093e858286016105ca565b9150509250929050565b5f82825260208201905092915050565b7f4f6e6c79206f776e65722063616e2063616c6c20746869732066756e6374696f5f8201527f6e2e000000000000000000000000000000000000000000000000000000000000602082015250565b5f6109b2602283610948565b91506109bd82610958565b604082019050919050565b5f6020820190508181035f8301526109df816109a6565b9050919050565b7f496e76616c696420636c757374657249642e00000000000000000000000000005f82015250565b5f610a1a601283610948565b9150610a25826109e6565b602082019050919050565b5f6020820190508181035f830152610a4781610a0e565b9050919050565b7f44696d656e73696f6e206d69736d617463682e000000000000000000000000005f82015250565b5f610a82601383610948565b9150610a8d82610a4e565b602082019050919050565b5f6020820190508181035f830152610aaf81610a76565b9050919050565b7f4e487b71000000000000000000000000000000000000000000000000000000005f52603260045260245ffdfea264697066735822122011e0348fd253a255011ed89adf4280e6620188889e59933bcdbbba587d910b7764736f6c63430008150033",
  "immutableReferences": {},
  "source": "// SPDX-License-Identifier: MIT\r\npragma solidity ^0.8.0;\r\n\r\ncontract FedClustering {\r\n    // Dimensione del vettore centro (ad es. numero di classi)\r\n    uint256 public dimension;\r\n    // Array di centri: ogni centro  un vettore di uint256\r\n    uint256[][] public centers;\r\n    // Proprietario del contratto (solo lui pu aggiornare i centri)\r\n    address public owner;\r\n\r\n    constructor(uint256 _dimension, uint256 _numClusters) {\r\n        owner = msg.sender;\r\n        dimension = _dimension;\r\n        // Inizializza i centri con vettori a zero\r\n        for (uint256 i = 0; i < _numClusters; i++) {\r\n            uint256[] memory center = new uint256[](_dimension);\r\n            centers.push(center);\r\n        }\r\n    }\r\n\r\n    modifier onlyOwner() {\r\n        require(msg.sender == owner, \"Only owner can call this function.\");\r\n        _;\r\n    }\r\n\r\n    // Imposta il centro per un determinato cluster\r\n    function setClusterCenter(uint256 clusterId, uint256[] memory newCenter) public onlyOwner {\r\n        require(clusterId < centers.length, \"Invalid clusterId.\");\r\n        require(newCenter.length == dimension, \"Dimension mismatch.\");\r\n        centers[clusterId] = newCenter;\r\n    }\r\n\r\n    // Ritorna il centro di un cluster\r\n    function getClusterCenter(uint256 clusterId) public view returns (uint256[] memory) {\r\n        require(clusterId < centers.length, \"Invalid clusterId.\");\r\n        return centers[clusterId];\r\n    }\r\n\r\n    // Aggiorna il centro di un cluster\r\n    function updateClusterCenter(uint256 clusterId, uint256[] memory newCenter) public onlyOwner {\r\n        require(clusterId < centers.length, \"Invalid clusterId.\");\r\n        require(newCenter.length == dimension, \"Dimension mismatch.\");\r\n        centers[clusterId] = newCenter;\r\n    }\r\n\r\n    // Ritorna il numero di cluster\r\n    function getNumClusters() public view returns (uint256) {\r\n        return centers.length;\r\n    }\r\n}\r\n",
  "sourcePath": "C:\\Users\\fabtu\\PycharmProjects\\gossip_bc_full\\contracts\\FedClustering.sol",
  "compiler": {
    "name": "solc",
    "version": "0.8.21+commit.d9974bed.Emscripten.clang"
  },
  "schemaVersion": "3.4.16",
  "updatedAt": "2025-03-08T14:08:50.730Z",
  "networkType": "ethereum",
  "devdoc": {
    "kind": "dev",
    "methods": {},
    "version": 1
  },
  "userdoc": {
    "kind": "user",
    "methods": {},
    "version": 1
  }
}