{
  "contractName": "FedClustering",
  "abi": [
    {
      "inputs": [
        {
          "internalType": "uint256",
          "name": "_dimension",
          "type": "uint256"
        },
        {
          "internalType": "uint256",
          "name": "_numClusters",
          "type": "uint256"
        }
      ],
      "stateMutability": "nonpayable",
      "type": "constructor"
    },
    {
      "inputs": [
        {
          "internalType": "uint256",
          "name": "",
          "type": "uint256"
        },
        {
          "internalType": "uint256",
          "name": "",
          "type": "uint256"
        }
      ],
      "name": "centers",
      "outputs": [
        {
          "internalType": "uint256",
          "name": "",
          "type": "uint256"
        }
      ],
      "stateMutability": "view",
      "type": "function",
      "constant": true
    },
    {
      "inputs": [],
      "name": "dimension",
      "outputs": [
        {
          "internalType": "uint256",
          "name": "",
          "type": "uint256"
        }
      ],
      "stateMutability": "view",
      "type": "function",
      "constant": true
    },
    {
      "inputs": [],
      "name": "outputLayerSize",
      "outputs": [
        {
          "internalType": "uint256",
          "name": "",
          "type": "uint256"
        }
      ],
      "stateMutability": "view",
      "type": "function",
      "constant": true
    },
    {
      "inputs": [],
      "name": "owner",
      "outputs": [
        {
          "internalType": "address",
          "name": "",
          "type": "address"
        }
      ],
      "stateMutability": "view",
      "type": "function",
      "constant": true
    },
    {
      "inputs": [
        {
          "internalType": "address",
          "name": "",
          "type": "address"
        }
      ],
      "name": "peerSegment",
      "outputs": [
        {
          "internalType": "uint256",
          "name": "",
          "type": "uint256"
        }
      ],
      "stateMutability": "view",
      "type": "function",
      "constant": true
    },
    {
      "inputs": [
        {
          "internalType": "uint256",
          "name": "",
          "type": "uint256"
        }
      ],
      "name": "peers",
      "outputs": [
        {
          "internalType": "address",
          "name": "",
          "type": "address"
        }
      ],
      "stateMutability": "view",
      "type": "function",
      "constant": true
    },
    {
      "inputs": [
        {
          "internalType": "uint256",
          "name": "_size",
          "type": "uint256"
        }
      ],
      "name": "setOutputLayerSize",
      "outputs": [],
      "stateMutability": "nonpayable",
      "type": "function"
    },
    {
      "inputs": [
        {
          "internalType": "uint256",
          "name": "clusterId",
          "type": "uint256"
        },
        {
          "internalType": "uint256[]",
          "name": "newCenter",
          "type": "uint256[]"
        }
      ],
      "name": "setClusterCenter",
      "outputs": [],
      "stateMutability": "nonpayable",
      "type": "function"
    },
    {
      "inputs": [
        {
          "internalType": "uint256",
          "name": "clusterId",
          "type": "uint256"
        }
      ],
      "name": "getClusterCenter",
      "outputs": [
        {
          "internalType": "uint256[]",
          "name": "",
          "type": "uint256[]"
        }
      ],
      "stateMutability": "view",
      "type": "function",
      "constant": true
    },
    {
      "inputs": [
        {
          "internalType": "uint256",
          "name": "clusterId",
          "type": "uint256"
        },
        {
          "internalType": "uint256[]",
          "name": "newCenter",
          "type": "uint256[]"
        }
      ],
      "name": "updateClusterCenter",
      "outputs": [],
      "stateMutability": "nonpayable",
      "type": "function"
    },
    {
      "inputs": [],
      "name": "getNumClusters",
      "outputs": [
        {
          "internalType": "uint256",
          "name": "",
          "type": "uint256"
        }
      ],
      "stateMutability": "view",
      "type": "function",
      "constant": true
    },
    {
      "inputs": [
        {
          "internalType": "address",
          "name": "_peer",
          "type": "address"
        },
        {
          "internalType": "uint256",
          "name": "segmentId",
          "type": "uint256"
        }
      ],
      "name": "assignPeerSegment",
      "outputs": [],
      "stateMutability": "nonpayable",
      "type": "function"
    },
    {
      "inputs": [
        {
          "internalType": "address",
          "name": "_peer",
          "type": "address"
        }
      ],
      "name": "getPeerSegment",
      "outputs": [
        {
          "internalType": "uint256",
          "name": "",
          "type": "uint256"
        }
      ],
      "stateMutability": "view",
      "type": "function",
      "constant": true
    },
    {
      "inputs": [
        {
          "internalType": "uint256",
          "name": "segmentId",
          "type": "uint256"
        }
      ],
      "name": "getSegmentBoundaries",
      "outputs": [
        {
          "internalType": "uint256",
          "name": "",
          "type": "uint256"
        },
        {
          "internalType": "uint256",
          "name": "",
          "type": "uint256"
        }
      ],
      "stateMutability": "view",
      "type": "function",
      "constant": true
    },
    {
      "inputs": [],
      "name": "electLeader",
      "outputs": [
        {
          "internalType": "address",
          "name": "",
          "type": "address"
        }
      ],
      "stateMutability": "view",
      "type": "function",
      "constant": true
    }
  ],
  "bytecode": "0x608060405234801562000010575f80fd5b5060405162001890380380620018908339818101604052810190620000369190620001db565b3360035f6101000a81548173ffffffffffffffffffffffffffffffffffffffff021916908373ffffffffffffffffffffffffffffffffffffffff160217905550815f819055505f5b8181101562000129575f8367ffffffffffffffff811115620000a557620000a462000220565b5b604051908082528060200260200182016040528015620000d45781602001602082028036833780820191505090505b509050600281908060018154018082558091505060019003905f5260205f20015f9091909190915090805190602001906200011192919062000132565b5050808062000120906200027a565b9150506200007e565b505050620002c6565b828054828255905f5260205f209081019282156200016f579160200282015b828111156200016e57825182559160200191906001019062000151565b5b5090506200017e919062000182565b5090565b5b808211156200019b575f815f90555060010162000183565b5090565b5f80fd5b5f819050919050565b620001b781620001a3565b8114620001c2575f80fd5b50565b5f81519050620001d581620001ac565b92915050565b5f8060408385031215620001f457620001f36200019f565b5b5f6200020385828601620001c5565b92505060206200021685828601620001c5565b9150509250929050565b7f4e487b71000000000000000000000000000000000000000000000000000000005f52604160045260245ffd5b7f4e487b71000000000000000000000000000000000000000000000000000000005f52601160045260245ffd5b5f6200028682620001a3565b91507fffffffffffffffffffffffffffffffffffffffffffffffffffffffffffffffff8203620002bb57620002ba6200024d565b5b600182019050919050565b6115bc80620002d45f395ff3fe608060405234801561000f575f80fd5b50600436106100f3575f3560e01c80639498202d11610095578063be4f3e8f11610064578063be4f3e8f14610271578063be8bb414146102a1578063bf740f58146102d2578063d7791c7314610302576100f3565b80639498202d146101e75780639822776d14610205578063a0e2fa0814610223578063b559776b14610241576100f3565b806360896e66116100d157806360896e661461014b5780637cefb20b1461017b578063853295c2146101995780638da5cb5b146101c9576100f3565b806301dafdd0146100f7578063120348541461011357806351152cb11461012f575b5f80fd5b610111600480360381019061010c9190610dec565b61031e565b005b61012d60048036038101906101289190610e46565b61046d565b005b61014960048036038101906101449190610ecb565b610506565b005b61016560048036038101906101609190610f09565b610724565b6040516101729190610f43565b60405180910390f35b61018361076a565b6040516101909190610f6b565b60405180910390f35b6101b360048036038101906101ae9190610e46565b610832565b6040516101c0919061103b565b60405180910390f35b6101d16108eb565b6040516101de9190610f6b565b60405180910390f35b6101ef610910565b6040516101fc9190610f43565b60405180910390f35b61020d610915565b60405161021a9190610f43565b60405180910390f35b61022b610921565b6040516102389190610f43565b60405180910390f35b61025b60048036038101906102569190610f09565b610927565b6040516102689190610f43565b60405180910390f35b61028b60048036038101906102869190610e46565b61093c565b6040516102989190610f6b565b60405180910390f35b6102bb60048036038101906102b69190610e46565b610977565b6040516102c992919061105b565b60405180910390f35b6102ec60048036038101906102e79190611082565b610a6d565b6040516102f99190610f43565b60405180910390f35b61031c60048036038101906103179190610dec565b610aa3565b005b60035f9054906101000a900473ffffffffffffffffffffffffffffffffffffffff1673ffffffffffffffffffffffffffffffffffffffff163373ffffffffffffffffffffffffffffffffffffffff16146103ad576040517f08c379a00000000000000000000000000000000000000000000000000000000081526004016103a490611140565b60405180910390fd5b60028054905082106103f4576040517f08c379a00000000000000000000000000000000000000000000000000000000081526004016103eb906111a8565b60405180910390fd5b5f54815114610438576040517f08c379a000000000000000000000000000000000000000000000000000000000815260040161042f90611210565b60405180910390fd5b806002838154811061044d5761044c61122e565b5b905f5260205f20019080519060200190610468929190610bf2565b505050565b60035f9054906101000a900473ffffffffffffffffffffffffffffffffffffffff1673ffffffffffffffffffffffffffffffffffffffff163373ffffffffffffffffffffffffffffffffffffffff16146104fc576040517f08c379a00000000000000000000000000000000000000000000000000000000081526004016104f390611140565b60405180910390fd5b8060018190555050565b60035f9054906101000a900473ffffffffffffffffffffffffffffffffffffffff1673ffffffffffffffffffffffffffffffffffffffff163373ffffffffffffffffffffffffffffffffffffffff1614610595576040517f08c379a000000000000000000000000000000000000000000000000000000000815260040161058c90611140565b60405180910390fd5b60028054905081106105dc576040517f08c379a00000000000000000000000000000000000000000000000000000000081526004016105d3906112a5565b60405180910390fd5b8060045f8473ffffffffffffffffffffffffffffffffffffffff1673ffffffffffffffffffffffffffffffffffffffff1681526020019081526020015f20819055505f805b6005805490508110156106b8578373ffffffffffffffffffffffffffffffffffffffff16600582815481106106595761065861122e565b5b905f5260205f20015f9054906101000a900473ffffffffffffffffffffffffffffffffffffffff1673ffffffffffffffffffffffffffffffffffffffff16036106a557600191506106b8565b80806106b0906112f0565b915050610621565b508061071f57600583908060018154018082558091505060019003905f5260205f20015f9091909190916101000a81548173ffffffffffffffffffffffffffffffffffffffff021916908373ffffffffffffffffffffffffffffffffffffffff1602179055505b505050565b5f60045f8373ffffffffffffffffffffffffffffffffffffffff1673ffffffffffffffffffffffffffffffffffffffff1681526020019081526020015f20549050919050565b5f80600580549050116107b2576040517f08c379a00000000000000000000000000000000000000000000000000000000081526004016107a990611381565b60405180910390fd5b5f60058054905042446040516020016107cc9291906113bf565b604051602081830303815290604052805190602001205f1c6107ee9190611417565b9050600581815481106108045761080361122e565b5b905f5260205f20015f9054906101000a900473ffffffffffffffffffffffffffffffffffffffff1691505090565b6060600280549050821061087b576040517f08c379a0000000000000000000000000000000000000000000000000000000008152600401610872906111a8565b60405180910390fd5b6002828154811061088f5761088e61122e565b5b905f5260205f20018054806020026020016040519081016040528092919081815260200182805480156108df57602002820191905f5260205f20905b8154815260200190600101908083116108cb575b50505050509050919050565b60035f9054906101000a900473ffffffffffffffffffffffffffffffffffffffff1681565b5f5481565b5f600280549050905090565b60015481565b6004602052805f5260405f205f915090505481565b6005818154811061094b575f80fd5b905f5260205f20015f915054906101000a900473ffffffffffffffffffffffffffffffffffffffff1681565b5f805f600154116109bd576040517f08c379a00000000000000000000000000000000000000000000000000000000081526004016109b490611491565b60405180910390fd5b5f60028054905090505f816001836001546109d891906114af565b6109e291906114e2565b6109ec9190611515565b9050818510610a30576040517f08c379a0000000000000000000000000000000000000000000000000000000008152600401610a27906112a5565b60405180910390fd5b5f8186610a3d9190611545565b90505f8282610a4c91906114af565b9050600154811115610a5e5760015490505b81819550955050505050915091565b60028281548110610a7c575f80fd5b905f5260205f20018181548110610a91575f80fd5b905f5260205f20015f91509150505481565b60035f9054906101000a900473ffffffffffffffffffffffffffffffffffffffff1673ffffffffffffffffffffffffffffffffffffffff163373ffffffffffffffffffffffffffffffffffffffff1614610b32576040517f08c379a0000000000000000000000000000000000000000000000000000000008152600401610b2990611140565b60405180910390fd5b6002805490508210610b79576040517f08c379a0000000000000000000000000000000000000000000000000000000008152600401610b70906111a8565b60405180910390fd5b5f54815114610bbd576040517f08c379a0000000000000000000000000000000000000000000000000000000008152600401610bb490611210565b60405180910390fd5b8060028381548110610bd257610bd161122e565b5b905f5260205f20019080519060200190610bed929190610bf2565b505050565b828054828255905f5260205f20908101928215610c2c579160200282015b82811115610c2b578251825591602001919060010190610c10565b5b509050610c399190610c3d565b5090565b5b80821115610c54575f815f905550600101610c3e565b5090565b5f604051905090565b5f80fd5b5f80fd5b5f819050919050565b610c7b81610c69565b8114610c85575f80fd5b50565b5f81359050610c9681610c72565b92915050565b5f80fd5b5f601f19601f8301169050919050565b7f4e487b71000000000000000000000000000000000000000000000000000000005f52604160045260245ffd5b610ce682610ca0565b810181811067ffffffffffffffff82111715610d0557610d04610cb0565b5b80604052505050565b5f610d17610c58565b9050610d238282610cdd565b919050565b5f67ffffffffffffffff821115610d4257610d41610cb0565b5b602082029050602081019050919050565b5f80fd5b5f610d69610d6484610d28565b610d0e565b90508083825260208201905060208402830185811115610d8c57610d8b610d53565b5b835b81811015610db55780610da18882610c88565b845260208401935050602081019050610d8e565b5050509392505050565b5f82601f830112610dd357610dd2610c9c565b5b8135610de3848260208601610d57565b91505092915050565b5f8060408385031215610e0257610e01610c61565b5b5f610e0f85828601610c88565b925050602083013567ffffffffffffffff811115610e3057610e2f610c65565b5b610e3c85828601610dbf565b9150509250929050565b5f60208284031215610e5b57610e5a610c61565b5b5f610e6884828501610c88565b91505092915050565b5f73ffffffffffffffffffffffffffffffffffffffff82169050919050565b5f610e9a82610e71565b9050919050565b610eaa81610e90565b8114610eb4575f80fd5b50565b5f81359050610ec581610ea1565b92915050565b5f8060408385031215610ee157610ee0610c61565b5b5f610eee85828601610eb7565b9250506020610eff85828601610c88565b9150509250929050565b5f60208284031215610f1e57610f1d610c61565b5b5f610f2b84828501610eb7565b91505092915050565b610f3d81610c69565b82525050565b5f602082019050610f565f830184610f34565b92915050565b610f6581610e90565b82525050565b5f602082019050610f7e5f830184610f5c565b92915050565b5f81519050919050565b5f82825260208201905092915050565b5f819050602082019050919050565b610fb681610c69565b82525050565b5f610fc78383610fad565b60208301905092915050565b5f602082019050919050565b5f610fe982610f84565b610ff38185610f8e565b9350610ffe83610f9e565b805f5b8381101561102e5781516110158882610fbc565b975061102083610fd3565b925050600181019050611001565b5085935050505092915050565b5f6020820190508181035f8301526110538184610fdf565b905092915050565b5f60408201905061106e5f830185610f34565b61107b6020830184610f34565b9392505050565b5f806040838503121561109857611097610c61565b5b5f6110a585828601610c88565b92505060206110b685828601610c88565b9150509250929050565b5f82825260208201905092915050565b7f4f6e6c79206f776e65722063616e2063616c6c20746869732066756e6374696f5f8201527f6e2e000000000000000000000000000000000000000000000000000000000000602082015250565b5f61112a6022836110c0565b9150611135826110d0565b604082019050919050565b5f6020820190508181035f8301526111578161111e565b9050919050565b7f496e76616c696420636c757374657249642e00000000000000000000000000005f82015250565b5f6111926012836110c0565b915061119d8261115e565b602082019050919050565b5f6020820190508181035f8301526111bf81611186565b9050919050565b7f44696d656e73696f6e206d69736d617463682e000000000000000000000000005f82015250565b5f6111fa6013836110c0565b9150611205826111c6565b602082019050919050565b5f6020820190508181035f830152611227816111ee565b9050919050565b7f4e487b71000000000000000000000000000000000000000000000000000000005f52603260045260245ffd5b7f496e76616c6964207365676d656e7449642e00000000000000000000000000005f82015250565b5f61128f6012836110c0565b915061129a8261125b565b602082019050919050565b5f6020820190508181035f8301526112bc81611283565b9050919050565b7f4e487b71000000000000000000000000000000000000000000000000000000005f52601160045260245ffd5b5f6112fa82610c69565b91507fffffffffffffffffffffffffffffffffffffffffffffffffffffffffffffffff820361132c5761132b6112c3565b5b600182019050919050565b7f4e6f2070656572732072656769737465726564000000000000000000000000005f82015250565b5f61136b6013836110c0565b915061137682611337565b602082019050919050565b5f6020820190508181035f8301526113988161135f565b9050919050565b5f819050919050565b6113b96113b482610c69565b61139f565b82525050565b5f6113ca82856113a8565b6020820191506113da82846113a8565b6020820191508190509392505050565b7f4e487b71000000000000000000000000000000000000000000000000000000005f52601260045260245ffd5b5f61142182610c69565b915061142c83610c69565b92508261143c5761143b6113ea565b5b828206905092915050565b7f4f7574707574206c617965722073697a65206e6f74207365742e0000000000005f82015250565b5f61147b601a836110c0565b915061148682611447565b602082019050919050565b5f6020820190508181035f8301526114a88161146f565b9050919050565b5f6114b982610c69565b91506114c483610c69565b92508282019050808211156114dc576114db6112c3565b5b92915050565b5f6114ec82610c69565b91506114f783610c69565b925082820390508181111561150f5761150e6112c3565b5b92915050565b5f61151f82610c69565b915061152a83610c69565b92508261153a576115396113ea565b5b828204905092915050565b5f61154f82610c69565b915061155a83610c69565b925082820261156881610c69565b9150828204841483151761157f5761157e6112c3565b5b509291505056fea26469706673582212201643fa608bc6d400aee1670f88db7ddfe7fbb4773016dbc402c13e03b089215364736f6c63430008150033",
  "immutableReferences": {},
  "source": "// SPDX-License-Identifier: MIT\r\npragma solidity ^0.8.0;\r\n\r\ncontract FedClustering {\r\n    uint256 public dimension;\r\n    uint256 public outputLayerSize;\r\n    uint256[][] public centers;\r\n    address public owner;\r\n\r\n    // Mappatura peer -> segmento\r\n    mapping(address => uint256) public peerSegment;\r\n    // Lista dei peer registrati (per leader election)\r\n    address[] public peers;\r\n\r\n    constructor(uint256 _dimension, uint256 _numClusters) {\r\n        owner = msg.sender;\r\n        dimension = _dimension;\r\n        for (uint256 i = 0; i < _numClusters; i++) {\r\n            uint256[] memory center = new uint256[](_dimension);\r\n            centers.push(center);\r\n        }\r\n    }\r\n\r\n    modifier onlyOwner() {\r\n        require(msg.sender == owner, \"Only owner can call this function.\");\r\n        _;\r\n    }\r\n\r\n    function setOutputLayerSize(uint256 _size) public onlyOwner {\r\n        outputLayerSize = _size;\r\n    }\r\n\r\n    function setClusterCenter(uint256 clusterId, uint256[] memory newCenter) public onlyOwner {\r\n        require(clusterId < centers.length, \"Invalid clusterId.\");\r\n        require(newCenter.length == dimension, \"Dimension mismatch.\");\r\n        centers[clusterId] = newCenter;\r\n    }\r\n\r\n    function getClusterCenter(uint256 clusterId) public view returns (uint256[] memory) {\r\n        require(clusterId < centers.length, \"Invalid clusterId.\");\r\n        return centers[clusterId];\r\n    }\r\n\r\n    function updateClusterCenter(uint256 clusterId, uint256[] memory newCenter) public onlyOwner {\r\n        require(clusterId < centers.length, \"Invalid clusterId.\");\r\n        require(newCenter.length == dimension, \"Dimension mismatch.\");\r\n        centers[clusterId] = newCenter;\r\n    }\r\n\r\n    function getNumClusters() public view returns (uint256) {\r\n        return centers.length;\r\n    }\r\n\r\n    // Assegna il segmento a un peer e lo registra (se non gi presente)\r\n    function assignPeerSegment(address _peer, uint256 segmentId) public onlyOwner {\r\n        require(segmentId < centers.length, \"Invalid segmentId.\");\r\n        peerSegment[_peer] = segmentId;\r\n        bool exists = false;\r\n        for (uint256 i = 0; i < peers.length; i++) {\r\n            if (peers[i] == _peer) {\r\n                exists = true;\r\n                break;\r\n            }\r\n        }\r\n        if (!exists) {\r\n            peers.push(_peer);\r\n        }\r\n    }\r\n\r\n    // Restituisce il segmento assegnato a un peer\r\n    function getPeerSegment(address _peer) public view returns (uint256) {\r\n        return peerSegment[_peer];\r\n    }\r\n\r\n    // Calcola e restituisce le boundaries per il segmento specificato\r\n    function getSegmentBoundaries(uint256 segmentId) public view returns (uint256, uint256) {\r\n        require(outputLayerSize > 0, \"Output layer size not set.\");\r\n        uint256 numClusters = centers.length;\r\n        uint256 segmentSize = (outputLayerSize + numClusters - 1) / numClusters;\r\n        require(segmentId < numClusters, \"Invalid segmentId.\");\r\n        uint256 startIdx = segmentId * segmentSize;\r\n        uint256 endIdx = startIdx + segmentSize;\r\n        if (endIdx > outputLayerSize) {\r\n            endIdx = outputLayerSize;\r\n        }\r\n        return (startIdx, endIdx);\r\n    }\r\n\r\n    // Leader election: restituisce un peer casuale dalla lista dei peer registrati\r\n    function electLeader() public view returns (address) {\r\n        require(peers.length > 0, \"No peers registered\");\r\n        uint256 index = uint256(keccak256(abi.encodePacked(block.timestamp, block.difficulty))) % peers.length;\r\n        return peers[index];\r\n    }\r\n}\r\n\r\n\r\n",
  "sourcePath": "C:\\Users\\fabtu\\PycharmProjects\\gossip_bc_full\\contracts\\FedClustering.sol",
  "compiler": {
    "name": "solc",
    "version": "0.8.21+commit.d9974bed.Emscripten.clang"
  },
  "schemaVersion": "3.4.16",
  "updatedAt": "2025-03-09T13:24:06.032Z",
  "networkType": "ethereum",
  "devdoc": {
    "kind": "dev",
    "methods": {},
    "version": 1
  },
  "userdoc": {
    "kind": "user",
    "methods": {},
    "version": 1
  }
}